:100000000C94FE000C9410010C9410010C9410013F
:100010000C9410010C9410010C9410010C9410011C
:100020000C9410010C9410010C9444010C941001D8
:100030000C9410010C946D060C9410010C9410019A
:100040000C9410010C9410010C9410010C941001EC
:100050000C9410010C9410010C9410010C941001DC
:100060000C9410010C9410010C9410010C941001CC
:100070000C9410010C9410010C9410010C941001BC
:100080000C9410010C9410010C9410010C941001AC
:100090000C9410010C9410010C9410010C9410019C
:1000A0000C9410010C9410010C9410010C9410018C
:1000B0000C9410010C9410010C9410010C949706F0
:1000C0000C9410010C9410010C9410010C9410016C
:1000D0000C9410010C9410010C9410010C9410015C
:1000E0000C9410010C9410010C9410010C9410014C
:1000F0000C9410010C9410010C9410010C9410013C
:100100000C9410010C9410010C9410010C9410012B
:100110000C9410010C9410010C9410010C9410011B
:100120000C9410010C9410010C9410010C9410010B
:100130000C9410010C9410010C9410010C941001FB
:100140000C9410010C9410010C9410010C94E7060F
:100150000C9410010C94CC060C9410010C9410011A
:100160000C9410010C9410010C9410010C941001CB
:100170000C9410010C9410010C9410010C941001BB
:100180000C9410010C9410010C9410010C941001AB
:100190000C9410010C9410010C9410010C9410019B
:1001A0000C9410010C9410010C9410010C9410018B
:1001B0000C9410010C9410010C9410010C9410017B
:1001C0000C9410010C9410010C9410010C9410016B
:1001D0000C9410010C9410010C9410010C9410015B
:1001E0000C9410010C9410010C9410010C9410014B
:1001F0000C9410010C9410010C94100111241FBEDA
:10020000CFEFCDBFDFE2DEBF21E2A0E0B0E201C070
:100210001D92A433B207E1F70E9466040C942E07E6
:100220000C941B07CF938091500086608093500000
:100230008091510081FFFCCF8091510082FFFCCF63
:100240001092560088ED84BFC1E0C093400083E067
:100250000E9425078093630084E00E942507809315
:100260006200C0936000CF9108958DE080934300B9
:10027000E0E0F4E08FEF9FE78287938782818260DE
:10028000828381E0808308951F920F920FB60F92B0
:10029000112400000F900FBE0F901F901895E0E200
:1002A000F6E080E8828783E0868B80E4838792E0B3
:1002B000978B81858C7F818780EC8093A1069183C9
:1002C000CF9ACE980895680F791F2FEF861797075A
:1002D00081F0CF9ACE98000020BBFC013191CF0174
:1002E00031BB000000000000CE9A0000CF9ACE98EB
:1002F000EDCFAD980895FC01608371834863DB0105
:1003000011964C93A081B18115962C930190F081A8
:10031000E02D81E0848308950F93CF93DF93FC0158
:10032000293050F5093040F58789811125C081E0D9
:10033000878B108E660F6283DA0180E090E082176F
:1003400038F43D91EF01C80FD91F3B830196F7CFD9
:10035000238B048B158A168A8389882319F082815E
:100360008E7F05C08489882349F082818160019055
:10037000F081E02D868302C080E001C081E0DF9142
:10038000CF910F910895FC01A081B18114968C91B9
:10039000149782FF02C094E001C093E0908F8860C0
:1003A00014968C93178A0895CF93DF93FC012389C9
:1003B0009489A081B18114968C91149784FF05C013
:1003C00083E013968C9385E01AC08589821758F4D0
:1003D0008589EF01C80FD11D8B8117968C93858974
:1003E0008F5F858B0EC08689891728F48281816092
:1003F00016968C9306C083E013968C9381E0808FD1
:10040000178ADF91CF910895FC018689A081B1817F
:10041000883060F417968C919689DF01A90FB11D81
:100420001B968C9386898F5F868B06C083E013961C
:100430008C9382E0808F178A94898689A081B1810C
:10044000891720F482E013968C93089587E0139621
:100450008C9381E0808F178A0895DC01ED91FC91E7
:100460002481322F3C7011F00C94C30126FD0C94B2
:10047000D40127FD0C94040226E0FC01208F178A8A
:1004800008956EE370E08EE890E20E946301A998FF
:10049000A99A0895EF92FF920F93CF93DF931F9243
:1004A000CDB7DEB77C018CE0898302E021E0AE01AC
:1004B0004F5F5F4F60E485ED90E20E948C01809178
:1004C000EC208111FCCF8091E0209091E120292F38
:1004D000382F3F70C9018E199F0997FF05C0215021
:1004E000304FC9018E199F090F90DF91CF910F9165
:1004F000FF90EF900895CF92DF92EF92FF920F93CB
:100500001F93AD9A85E590E0A0E0B0E080938E2047
:1005100090938F20A0939020B09391208AEA90E04E
:10052000A0E0B0E08093922090939320A093942039
:10053000B093952080913221909133210E944A02FC
:10054000A0E0B0E08093962090939720A09398200D
:10055000B09399202091200A3091210A809108209F
:1005600090910920A0910A20B0910B20820F931F37
:10057000A11DB11D80939A2090939B20A0939C2055
:10058000B0939D208091280B9091290BA0E0B0E0C2
:1005900080939E2090939F20A093A020B093A120B1
:1005A0008091D0208330E9F44091A2205091A32083
:1005B0006091A4207091A5204091A2205091A32089
:1005C0006091A4207091A5204F5F5F4F6F4F7F4FC8
:1005D0004093A2205093A3206093A4207093A52061
:1005E00010C01092A6201092A7201092A82010925E
:1005F000A9201092A2201092A3201092A420109261
:10060000A5204091A2205091A3206091A420709138
:10061000A5204093CC205093CD206093CE207093A2
:10062000CF204091A6205091A7206091A8207091E2
:10063000A9204093D1205093D2206093D32070936F
:10064000D42090910420913031F41092200910921E
:1006500021091092042001E010E020E030E0009336
:10066000AA201093AB202093AC203093AD2042E021
:1006700050E060E070E04093AE205093AF20609374
:10068000B0207093B120C0900C20D0900D20E0904D
:100690000E20F0900F20C092B220D092B320E092B2
:1006A000B420F092B520C090F020D090F120E090DE
:1006B000F220F090F320C092B620D092B720E092C2
:1006C000B820F092B920E091EE20F091EF20E09375
:1006D000C820F093C9208230D9F068F48823A1F0B3
:1006E000813059F50093BA201093BB202093BC2091
:1006F0003093BD2022C08330A1F08430F1F484E037
:1007000090E0A0E0B0E011C081E08093D02015C05F
:100710004093BA205093BB206093BC207093BD20BF
:100720000CC083E090E0A0E0B0E08093BA2090930A
:10073000BB20A093BC20B093BD201092CA20109281
:10074000CB2080EC8093D000000081E08093D0002B
:10075000EEE8F0E281918093D300000080E2EA3C71
:10076000F807C1F781E08093D1008091D500809394
:10077000CA208091D4008093CB201F910F91FF90CD
:10078000EF90DF90CF900895CF93DF93E0EBF0E010
:1007900080E1828385E28383A59AA49AC59A8FEF2C
:1007A000809362068FE0809382060E944F01E0E40E
:1007B000F6E08489887F848B84898360848B858933
:1007C000887F858B85898360858B80E38283A0E821
:1007D000B1E094E69C938EE080938801C0E0DAE07B
:1007E00021E0288388E68B8382E08E8318A219A2F9
:1007F000C0E0D8E033EC39834FEF53E04EA35FA362
:1008000018823CE03283C0E4D9E08E838F83CEE847
:10081000D0E21C8A1D8A1E8A1F8A188E198E1A8E93
:100820001B8E248B17969C9317971F969C911F974E
:100830001F969C93E0E0FBE093E191839FEA938312
:1008400095E0908380932106DF91CF91089580E316
:100850008093210680E2809325068091940688612A
:100860008093940690E38091880684FF0CC02FEF5C
:100870003FE183E0215030408040E1F700C00000BC
:1008800090932706F0CF80E380932206809326067C
:100890000895611594E07907C0F4813049F48FEF31
:1008A00093E080933C0890933D08861B970B09C00A
:1008B0008FEF93E09C01261B370B20933C0830936D
:1008C0003D0880933E0890933F08089581E080930F
:1008D000D0200E9427042BE040E460E874E085ED1E
:1008E00090E20E947B010E94C4030E9412010E94B8
:1008F000350187E88093A20078948EE3EEE8F0E279
:10090000DF01982F1D929A95E9F7E0E1F0E2DF010F
:100910001D928A95E9F780E090E00E944A02809358
:1009200032219093332100009DEF88ED08B618BE68
:1009300084BF9093800008BE85E08093000930EC6E
:10094000932EC1E00EE410E248EDD42EDCE053E03B
:10095000C52EEE24EA946CE7F62E74E0B72EE2E0A2
:10096000AE2EB69926C080910520811122C010922A
:10097000600A1092610ACF9ACE9810BACF98000000
:100980000000000082B381B90000CF9ACE9881B1F7
:10099000853509F08EC010924F2081B18093F420EC
:1009A000C0934F2081B180931020C0930520AC9A52
:1009B00080C0B6997EC0CF9ACE9810BACF9800006A
:1009C0000000000082B381B90000CF9ACE988091D8
:1009D0004F208E3310F000000FC0282F30E091B16F
:1009E000F901EC50FF4D90838F5F80934F2081B1D0
:1009F000F901E05FFF4D808380914F208E3309F035
:100A000058C010920520AC98000080911820909159
:100A10001920A0911A20B0911B200197A105B105C2
:100A200009F400009092D0000000C093D000E0E1F3
:100A3000F0E281918093D30000000E171F07C9F7E1
:100A4000C093D1008091D10081FF12C149C0833091
:100A50009105A105B10508F0F8C00097A105B10501
:100A600009F483C00197A105B10519F5CD9AC0938A
:100A70000008D09341068091D0208330A1F01092DD
:100A8000600910926109E0926609F092670980910D
:100A90006609909167099695879580936809909368
:100AA0006909C0934009C092D02010922009109289
:100AB000210980910720813029F080910620882328
:100AC00009F44FCF0E947B021092072080910620EC
:100AD000882309F446CF0E9441021092062041CF9C
:100AE0001092052010924F20809124209091252073
:100AF000A0912620B091272080930C2090930D2068
:100B0000A0930E20B0930F2080912820909129204F
:100B1000A0912A20B0912B208093F0209093F12077
:100B2000A093F220B093F3200000809118209091C0
:100B30001920A0911A20B0911B2082309105A105A7
:100B4000B10509F084CFCD9810920008D0934206E9
:100B500010922C0810922D0810922E0810922F0837
:100B6000A092D020C0930620A4CFA8958091D02039
:100B7000833031F0B092D02010920008D09342061A
:100B800040912020509121206091222070912320BB
:100B900080911C2090911D20A0911E20B0911F20BB
:100BA000BA010E9449044091282050912920609167
:100BB0002A2070912B208091D1209091D220A09159
:100BC000D320B091D420481759076A077B0709F052
:100BD00070CF409124205091252060912620709163
:100BE00027208091CC209091CD20A091CE20B09153
:100BF000CF20481759076A077B0709F05ACF809121
:100C00002009909121098093EE209093EF20C093CA
:100C1000042080910220909103200196809302206D
:100C2000909303208091022090910320069708F072
:100C300000008091002090910120892B09F439CF88
:100C4000109200201092012034CF83309105A1052D
:100C5000B10541F40000D4BE809179008160809399
:100C6000790027CF0497A105B10509F47BCF21CFE7
:100C70001092052010924F2040E021E030E080E00B
:100C8000F901EC50FF4D9081953531F48130B1F090
:100C9000C093052040E012C0813081F080E02F5FDA
:100CA0003F4F2E33310561F740934F20811101CF23
:100CB0001092052010924F200000FBCE842F90E070
:100CC0005081DC01A05FBF4D5C934F5F5081FC0100
:100CD000EC50FF4D508381E0E2CF1F920F920FB690
:100CE0000F9211240BB60F922F933F934F935F9364
:100CF0006F937F938F939F93AF93BF93EF93FF93E4
:100D000085ED90E20E942D02FF91EF91BF91AF918E
:100D10009F918F917F916F915F914F913F912F9113
:100D20000F900BBE0F900FBE0F901F9018951F9243
:100D30000F920FB60F9211242F938F939F93AF931F
:100D4000BF932091090A8091082090910920A091D9
:100D50000A20B0910B2020FF05C08F5F9F4FA10993
:100D6000B10903C00297AF4FBF4F80930820909303
:100D70000920A0930A20B0930B2080910C0A816077
:100D800080930C0ABF91AF919F918F912F910F90FB
:100D90000FBE0F901F9018951F920F920FB60F92D3
:100DA00011248F938091D020833031F481E080939F
:100DB000072088E08093650680914C0980618093CC
:100DC0004C098F910F900FBE0F901F9018951F9296
:100DD0000F920FB60F9211240BB60F922F933F93E1
:100DE0004F935F936F937F938F939F93AF93BF9333
:100DF000EF93FF938091D020833029F40E94410229
:100E000088E08093660680914C09816080934C094C
:100E1000FF91EF91BF91AF919F918F917F916F91D2
:100E20005F914F913F912F910F900BBE0F900FBE8E
:100E30000F901F9018951F920F920FB60F921124CA
:100E40000F900FBE0F901F901895AAECB1E092E0A2
:100E50009C93E82FF0E084911C920895F894FFCFC2
:00000001FF
